:0400000039EF72F072
:10E12C00E5EC71F012007AEC7BF0446E4450120076
:10E13D003030030B131B232B333B293139066E0172
:10E14D000E056EB3EF70F006C001F0026AFF0E030C
:10E15D006EC0EC71F0056E062A0A0E0664B9EF70FA
:10E16D00F0BBEF70F0AAEF70F005501200010E0336
:10E17D006E000E046ECCEF70F004500124D96E00C9
:10E18D000E0220DA6EFF0EDF6E042A090E0464D231
:10E19D00EF70F0D4EF70F0C3EF70F0035012000386
:10E1AD00500410D8A4DDEF70F0DFEF70F0E1EF70E8
:10E1BD00F0F1EF70F00250030BAA6E01C0A9FFA69B
:10E1CD009EA69CA68000F000F003C0D9FF04C0DA23
:10E1DD00FFA8CFDFFF000E12000E500F10D8A4FACB
:10E1ED00EF70F0FCEF70F000EF71F0000E106E109C
:10E1FD00EF71F00EC00BF00FC00CF012EC71F010BF
:10E20D006E010E0E240B6E000E0F200C6E12EC71B3
:10E21D00F0106E105012000B500C10D8A419EF71A5
:10E22D00F01BEF71F01DEF71F033EF71F00BC001CA
:10E23D00F00CC002F059EC79F00D6E0BC001F00C32
:10E24D00C002F00BC0D9FF0CC0DAFF000EDFBC011D
:10E25D000E036E38EC77F00D6E1200FFFFFFFFFF1F
:10E26D00FFFFFFFFFFFFFFFFFFFFFFFFFFFFFF921E
:10E27D000F930F940F950F960F890F8A0F8B0F8C9D
:10E28D000F8D0F800F810F820F830F840FFFFFFF04
:10E29D00FFFFFFFFFFFFFF020A121AA2AAB2BA0B7D
:10E2AD00500C10D8A45DEF71F05FEF71F063EF715A
:10E2BD00F0000E0D6E77EF71F00BC001F00CC00287
:10E2CD00F0010E036E38EC77F00D6E010E0B24018C
:10E2DD006E000E0C20026E000E036E38EC77F00D02
:10E2ED006E0D5012000B500C10D8A480EF71F082FF
:10E2FD00EF71F086EF71F0000E0D6E9AEF71F00B6D
:10E30D00C001F00CC002F0000E036E38EC77F00D7A
:10E31D006E010E0B24016E000E0C20026E000E031A
:10E32D006E38EC77F00D6E0D5012000B500C10D8AE
:10E33D00A4A3EF71F0A5EF71F0A9EF71F0000E0D30
:10E34D006EBEEF71F00BC001F00CC002F0010E03B8
:10E35D006E38EC77F0030EE82EFED700F00BC001FF
:10E36D00F00CC002F0000E036E38EC77F00D6E0D60
:10E37D00501200000E046E000EF2BE010E046E026D
:10E38D0050030BAA6E01C0A9FF03C0A8FFA69EA64D
:10E39D009CA684F29E550EA76EAA0EA76EA682A607
:10E3AD00B2DBEF71F0DDEF71F0D6EF71F004B0027A
:10E3BD00D0F29E01D0F28EA694010E1200530E0ED5
:10E3CD006E000E0F6E90EC73F0510E0E6E000E0F70
:10E3DD006EF3EC70F04B0E186E000E196E45EC7866
:10E3ED00F09C0E0E6E000E0F6E15EC73F0550E0EAA
:10E3FD006E000E0F6E51EC73F0540E0E6E000E0F7C
:10E40D006E51EC73F01E6E1E501200010E086E055B
:10E41D00500610D8A415EF72F017EF72F01BEF72C3
:10E42D00F0000E086E37EF72F0000E096E2EEF72CF
:10E43D00F009C001F0026A09500524D96E000E06DC
:10E44D0020DA6EDF50036EC0EC71F0086E092A07FA
:10E45D0050095CD8A035EF72F037EF72F01FEF72F4
:10E46D00F008501200680EF66EE20EF76E000EF810
:10E47D006E00EE60F010EE44F00900F5CFEEFFE512
:10E48D0050E150FAE13D0EF66EE10EF76E000EF81A
:10E49D006E00EE49F010EE0DF00900F5CFEEFFE540
:10E4AD0050E150FAE100EEA4F0140EEE6AE806FD1C
:10E4BD00E100EE56F0090EEE6AE806FDE1000EF8F9
:10E4CD006E0001EAEF79F070EF72F0014A022A0353
:10E4DD004A042A03C0D9FF04C0DAFF01C0E1FF02DC
:10E4ED00C0E2FFDE50E618D8A47FEF72F081EF7224
:10E4FD00F08DEF72F001C0D9FF02C0DAFFDF50D806
:10E50D00A48BEF72F08DEF72F06CEF72F001C0D949
:10E51D00FF02C0DAFFDF50056E03C0D9FF04C0DA79
:10E52D00FFDF50066E0650055C016E026AD8A00230
:10E53D000612000B500C10D8A4A7EF72F0A9EF72C1
:10E54D00F0ADEF72F0000E126ED8EF72F0000E13F8
:10E55D006E000E136E13500B240E6E000E0C200F5A
:10E56D006E020E0E24016E000E0F20026E13C010EF
:10E57D00F00DC011F0102AC6EF72F0D890113210C4
:10E58D002EC4EF72F01150010B036E38EC77F012C0
:10E59D006E132A030E1364D6EF72F0D8EF72F0B13A
:10E5AD00EF72F01250120014501510D8A4E1EF7252
:10E5BD00F0E3EF72F0E7EF72F0000E176E13EF73EA
:10E5CD00F0010E1424016E000E1520026E000E03D4
:10E5DD006E38EC77F0176E14C00BF015C00CF016FA
:10E5ED00380F0B0D6EA0EC72F0176E14C00BF015FA
:10E5FD00C00CF09CEC71F0176E14C00BF015C00C34
:10E60D00F016C00DF0A0EC72F0176E14C00BF015E3
:10E61D00C00CF09CEC71F0176E175012000E500FDD
:10E62D0010D8A41CEF73F01EEF73F022EF73F000FF
:10E63D000E126E4FEF73F0000E136E13500E240B6F
:10E64D006E000E0F200C6E12EC71F0132A030E13D8
:10E65D006433EF73F035EF73F024EF73F0000E14A5
:10E66D006E14500E24106E000E0F20116E040E103D
:10E67D00240B6E000E11200C6E12EC71F0126E1444
:10E68D002A030E14644DEF73F04FEF73F037EF73F1
:10E69D00F0125012000E500F10D8A458EF73F05A0C
:10E6AD00EF73F05EEF73F0000E116E8EEF73F05A94
:10E6BD00C012F00EC0D9FF0FC0DAFFDF50070B10EC
:10E6CD006E12501018F80B1018126E0EC0D9FF0FE5
:10E6DD00C0DAFFDF30E832E832070B106E1046105B
:10E6ED0046104612501018C70B1018126E0EC0D9D6
:10E6FD00FF0FC0DAFFDFAC02D0128C01D0129C12DA
:10E70D009E120E0B6E000E0C6E12EC71F0116E114E
:10E71D005012000E500F10D8A497EF73F099EF73AD
:10E72D00F09DEF73F0000E116ECDEF73F05EC01221
:10E73D00F00EC0D9FF0FC0DAFFDF50070B106E12BD
:10E74D00501018F80B1018126E0EC0D9FF0FC0DA4A
:10E75D00FFDF30E832E832070B106E10461046101E
:10E76D004612501018C70B1018126E0EC0D9FF0F9D
:10E77D00C0DAFFDFAC02D0128C01D0129C129E12B7
:10E78D000E0B6E000E0C6E12EC71F0116E1150121C
:10E79D00000B500C10D8A4D6EF73F0D8EF73F0DC4B
:10E7AD00EF73F0000E0E6E0EEF74F058C00FF00BFD
:10E7BD00C0D9FF0CC0DAFFDF50070B0D6E0F500DE7
:10E7CD0018F80B0D180F6E0BC0D9FF0CC0DAFFDF58
:10E7DD0030E832E832070B0D6E0D460D460D460F33
:10E7ED00500D18C70B0D180F6E0BC0D9FF0CC0DAEA
:10E7FD00FFDFAC02D00F8C01D00F9C0F9E0F0E01CE
:10E80D006E000E026E000E036E38EC77F00E6E0E7B
:10E81D005012000B500C10D8A417EF74F019EF74B0
:10E82D00F01DEF74F0000E0E6E4FEF74F059C00F27
:10E83D00F00BC0D9FF0CC0DAFFDF50070B0D6E0FC8
:10E84D00500D18F80B0D180F6E0BC0D9FF0CC0DA58
:10E85D00FFDF30E832E832070B0D6E0D460D460D29
:10E86D00460F500D18C70B0D180F6E0BC0D9FF0CAE
:10E87D00C0DAFFDFAC02D00F8C01D00F9C0F9E0FC2
:10E88D000E016E000E026E010E036E38EC77F00E67
:10E89D006E0E5012000B500C10D8A458EF74F05A95
:10E8AD00EF74F05EEF74F0000E0E6E90EF74F05C8E
:10E8BD00C00FF00BC0D9FF0CC0DAFFDF50070B0DF6
:10E8CD006E0F500D18F80B0D180F6E0BC0D9FF0CF5
:10E8DD00C0DAFFDF30E832E832070B0D6E0D460D62
:10E8ED00460D460F500D18C70B0D180F6E0BC0D9E6
:10E8FD00FF0CC0DAFFDFAC02D00F8C01D00F9C0FE4
:10E90D009E0F0E016E000E026E000E036E38EC7738
:10E91D00F00E6E0E5012000B500C10D8A499EF741F
:10E92D00F09BEF74F09FEF74F0000E0E6ED1EF744C
:10E93D00F05DC00FF00BC0D9FF0CC0DAFFDF500740
:10E94D000B0D6E0F500D18F80B0D180F6E0BC0D967
:10E95D00FF0CC0DAFFDF30E832E832070B0D6E0D29
:10E96D00460D460D460F500D18C70B0D180F6E0BAB
:10E97D00C0D9FF0CC0DAFFDFAC02D00F8C01D00F75
:10E98D009C0F9E0F0E016E000E026E010E036E386F
:10E99D00EC77F00E6E0E5012001F502010D8A4DA36
:10E9AD00EF74F0DCEF74F0E0EF74F0000E246E13F2
:10E9BD00EF75F023061FC018F020C019F022C01A01
:10E9CD00F023C01BF00EEC76F0010E1F24016E003B
:10E9DD000E2020026E010E036E38EC77F01FC00B77
:10E9ED00F020C00CF021380F0B0D6EA0EC72F01F53
:10E9FD00C00BF020C00CF09CEC71F01FC00BF02090
:10EA0D00C00CF021C00DF0A0EC72F01FC00BF02077
:10EA1D00C00CF09CEC71F0246E24501200010E0A13
:10EA2D006E01500210D8B41EEF75F020EF75F0296D
:10EA3D00EF75F003500410D8A427EF75F029EF758A
:10EA4D00F02DEF75F0000E0A6E5EEF75F001C0D976
:10EA5D00FF02C0DAFFDF30E832E832070B056E0146
:10EA6D00C0D9FF02C0DAFFDF50070B066E06500259
:10EA7D000D880EF324D96E000EF420DA6EDECF076A
:10EA8D00F0DDCF08F007C0D9FF08C0DAFFDF50096D
:10EA9D006E052A54EF75F0D8900932052E52EF7598
:10EAAD00F00950010B03C0D9FF04C0DAFFDF6E0A75
:10EABD00501200000E2A6E4B0E146E000E156E01D4
:10EACD000E166EDAEC72F04B0E1F6E000E206E906D
:10EADD000E216EFF0E226E010E236E010E246E6A44
:10EAED00EC76F04B0E1F6E000E206E4B0E216EFF5E
:10EAFD000E226E020E236E010E246E6AEC76F09CD1
:10EB0D000E0B6E000E0C6E2A0E0D6E000E0E6ECFDD
:10EB1D00EC78F0310E2A18D8B497EF75F099EF759F
:10EB2D00F0A2EF75F0320E2A18D8A4A0EF75F0A25E
:10EB3D00EF75F086EF75F04B0E146E000E156E012D
:10EB4D000E166EDAEC72F0296E27C0D9FF28C0DAE6
:10EB5D00FF2AC0DFFF29501200010E0B6E05500673
:10EB6D0010D8B4BCEF75F0BEEF75F0C7EF75F007B8
:10EB7D00500810D8A4C5EF75F0C7EF75F0CBEF7541
:10EB8D00F0000E0B6E0CEF76F0000E0D6E000E0CFD
:10EB9D006E000E0A6EEFEF75F00DC001F0026A0CFB
:10EBAD000E036E000E046ED6EC70F00B6E0D50055C
:10EBBD0024D96E000E0620DA6E0C50DE18D8B4EA99
:10EBCD00EF75F0ECEF75F0EEEF75F0010E0A6E0DCE
:10EBDD002A090E0D64F5EF75F0F7EF75F0D3EF75AB
:10EBED00F00A50D8B4FDEF75F0FFEF75F006EF7633
:10EBFD00F007C0D9FF08C0DAFFDF6A0CEF76F00727
:10EC0D00C0D9FF08C0DAFF010EDF6E0B50120018DD
:10EC1D00501910D8A415EF76F017EF76F04BEF766C
:10EC2D00F0000E1E6E68EF76F018C014F019C015C6
:10EC3D00F01B50800F166EDAEC72F01E6E68EF76D8
:10EC4D00F018C014F019C015F01B50C00F166EDA75
:10EC5D00EC72F01E6E68EF76F018C014F019C01546
:10EC6D00F01B50940F166EDAEC72F01E6E68EF7694
:10EC7D00F018C014F019C015F01B50D40F166EDA31
:10EC8D00EC72F01E6E68EF76F01A501C6E1D6A1D48
:10EC9D0050000AD8B455EF76F017EF76F01C5001FE
:10ECAD000AD8B41BEF76F0030AD8B427EF76F0013B
:10ECBD000AD8B433EF76F0070AD8B43FEF76F017E1
:10ECCD00EF76F01E5012001F502010D8A471EF7671
:10ECDD00F073EF76F077EF76F0000E266ECAEF76D2
:10ECED00F024061FC018F020C019F023C01AF0241C
:10ECFD00C01BF00EEC76F0010E1F24016E000E20ED
:10ED0D0020026E010E036E38EC77F0266EBCEF76A6
:10ED1D00F01FC00BF020C00CF021C0F6FF22C0F791
:10ED2D00FF0800F5CF25F025380F0B0D6EA0EC7206
:10ED3D00F01FC00BF020C00CF09CEC71F01FC00B4D
:10ED4D00F020C00CF021C0F6FF22C0F7FF0800F53F
:10ED5D00CF0DF0A0EC72F0266E1FC00BF020C00C92
:10ED6D00F09CEC71F0266E214A222A21C0F6FF227A
:10ED7D00C0F7FF0800F5500009D8A4C8EF76F0CA17
:10ED8D00EF76F08FEF76F026501200010E296E25EA
:10ED9D00502610D8A4D5EF76F0D7EF76F0DBEF76CE
:10EDAD00F0000E296E36EF77F0000E2A6E2EEF77FB
:10EDBD00F0000E2B6EEEEF76F09C0E0B6E000E0C2F
:10EDCD006E2B0E0D6E000E0E6ECFEC78F0296E2BA5
:10EDDD0050D8B4F4EF76F0F6EF76F0E3EF76F0235B
:10EDED000E2B18D8B4FDEF76F0FFEF76F023EF770A
:10EDFD00F02A502524D96E000E2620DA6E2BC0DFA6
:10EE0D00FF4B0E1F6E000E206E2A0E216E020E227B
:10EE1D006E2A28236ED3EC74F0296E2A2A030E284D
:10EE2D006E080E276E770EE82EFED7272EFCD728FC
:10EE3D002EFAD700F02EEF77F0230E2B18D8A42A38
:10EE4D00EF77F02CEF77F02EEF77F036EF77F009C4
:10EE5D000E2A6434EF77F036EF77F0DFEF76F02996
:10EE6D00501200010E0A6E01500210D8A441EF7726
:10EE7D00F043EF77F0A6EF77F0000E0A6EBBEF7759
:10EE8D00F001C0D9FF02C0DAFFDF30E832E8320707
:10EE9D000B046E010E056E042A57EF77F0D890051E
:10EEAD0036042E55EF77F001C0D9FF02C0DAFFDF2F
:10EEBD0050070B066E0650020D7E0EF324D96E0020
:10EECD000EF420DA6EDECF07F0DDCF08F007C0D9E3
:10EEDD00FF08C0DAFF0550DF12BBEF77F001C0D994
:10EEED00FF02C0DAFFDF30E832E832070B046E01B3
:10EEFD000E056E042A85EF77F0D8900536042E8323
:10EF0D00EF77F00550FF0A066E01C0D9FF02C0DA97
:10EF1D00FFDF50070B076E0750020D7E0EF324D94D
:10EF2D006E000EF420DA6EDECF08F0DDCF09F008AA
:10EF3D00C0D9FF09C0DAFF0650DF16BBEF77F0032B
:10EF4D0050046E056A0550000AD8B4B0EF77F0434F
:10EF5D00EF77F00450000AD8B475EF77F0010AD8B6
:10EF6D00B447EF77F043EF77F00A5012004B0E14D1
:10EF7D006E000E156E010E166EDAEC72F04B0E1F52
:10EF8D006E000E206E130E216EFF0E226E010E23EB
:10EF9D006E010E246E6AEC76F00B0E286E260E278F
:10EFAD006E5E0EE82EFED7272EFCD7282EFAD74BF5
:10EFBD000E1F6E000E206E000E216EFF0E226E01D2
:10EFCD000E236E010E246E6AEC76F00B0E286E2663
:10EFDD000E276E5E0EE82EFED7272EFCD7282EFAB2
:10EFED00D74B0E1F6E000E206EED0E216EFE0E2203
:10EFFD006E010E236E010E246E6AEC76F00B0E2858
:10F00D006E260E276E5E0EE82EFED7272EFCD72815
:10F01D002EFAD74B0E1F6E000E206EDA0E216EFEED
:10F02D000E226E010E236E010E246E6AEC76F00B2D
:10F03D000E286E260E276E5E0EE82EFED7272EFCAE
:10F04D00D7282EFAD74B0E1F6E000E206EC70E213D
:10F05D006EFE0E226E010E236E010E246E6AEC768C
:10F06D00F0296E0B0E286E260E276E5E0EE82EFE14
:10F07D00D7272EFCD7282EFAD72950120018501951
:10F08D0010D8A44CEF78F04EEF78F052EF78F000F6
:10F09D000E1D6ECDEF78F018C00BF019C00CF012EC
:10F0AD00EC71F0010E18240B6E000E19200C6E126F
:10F0BD00EC71F01D6E000E1C6E1C5018241A6E00A3
:10F0CD000E19201B6E020E1A240B6E000E1B200C47
:10F0DD006E12EC71F01D161C2A030E1C6479EF786C
:10F0ED00F07BEF78F063EF78F0340E1A6EF20EE8E5
:10F0FD002EFED71A2EFCD718C014F019C015F033F8
:10F10D000E166EDAEC72F00D0E1A6EFC0EE82EFE77
:10F11D00D71A2EFCD718C014F019C015F0320E16E0
:10F12D006EDAEC72F0640EE82EFED718C014F019EA
:10F13D00C015F0280E166EDAEC72F018C014F01926
:10F14D00C015F0010E166EDAEC72F018C014F0193D
:10F15D00C015F0030E166EDAEC72F018C014F0192B
:10F16D00C015F0060E166EDAEC72F018C014F01918
:10F17D00C015F00C0E166EDAEC72F018C014F01902
:10F18D00C015F0800E166EDAEC72F01D6E1D501269
:10F19D00000B500C10D8B4D6EF78F0D8EF78F0E122
:10F1AD00EF78F00D500E10D8A4DFEF78F0E1EF7886
:10F1BD00F0E5EF78F0000E116E57EF79F0000E14B8
:10F1CD006E000E126E000E136E13500B24016E00A6
:10F1DD000E0C20026E000E036E38EC77F0132A032E
:10F1ED000E1364FCEF78F0FEEF78F0EBEF78F0148F
:10F1FD00500B24016E000E0C20026E010E036E38B2
:10F20D00EC77F01A0E0F6EF80EE82EFED70F2EFCCF
:10F21D00D700F000F0000E156E15500B240F6E0088
:10F22D000E0C20106E040E0F24016E000E10200225
:10F23D006E120E036E000E046E15EC75F0116E124B
:10F24D0050D8B42CEF79F02EEF79F045EF79F0141A
:10F25D0050040D170EF3240F6EFE0EF420106E15D4
:10F26D00500F26000E10220FC0F6FF10C0F7FF0D35
:10F27D00C0D9FF0EC0DAFF0800F5CFDFFF152A0356
:10F28D000E15644CEF79F04EEF79F013EF79F01421
:10F29D002A030E146455EF79F057EF79F0E7EF7804
:10F2AD00F011501200010E096E01500210D8A46227
:10F2BD00EF79F064EF79F0C7EF79F0000E096EE8A1
:10F2CD00EF79F001C0D9FF02C0DAFFDF30E832E894
:10F2DD0032070B036E010E046E032A78EF79F0D816
:10F2ED00900436032E76EF79F00450FF0A056E0177
:10F2FD00C0D9FF02C0DAFFDF50070B066E065002C1
:10F30D000D740EF324D96E000EF420DA6EDECF07E5
:10F31D00F0DDCF08F007C0D9FF08C0DAFF0550DFD8
:10F32D0016E8EF79F001C0D9FF02C0DAFFDF30E84F
:10F33D0032E832070B036E010E046E032AA9EF7932
:10F34D00F0D8900436032EA7EF79F001C0D9FF0253
:10F35D00C0DAFFDF50070B056E0550020D740EF37A
:10F36D0024D96E000EF420DA6EDECF06F0DDCF0765
:10F37D00F006C0D9FF07C0DAFF0450DF12E8EF79BD
:10F38D00F001C0D9FF02C0DAFFDFBED0EF79F0D3B4
:10F39D00EF79F0010ED4EF79F0000E036E046A04DC
:10F3AD0050000AD8B4DDEF79F064EF79F003500026
:10F3BD000AD8B468EF79F0010AD8B499EF79F064FE
:10F3CD00EF79F009501200000E476E000E486E9650
:10F3DD00EC70F0030E026E0168470E036E000E0412
:10F3ED006ED6EC70F04750D8B4FFEF79F001EF7A9C
:10F3FD00F005EF7AF0D0EC7CF07CEF7AF0310E482E
:10F40D0018D8B40CEF7AF00EEF7AF01DEF7AF032D7
:10F41D000E4818D8B415EF7AF017EF7AF01DEF7A81
:10F42D00F0480E276E000E286E60EC75F0030E4648
:10F43D006E080E456E770EE82EFED7452EFCD7468C
:10F44D002EFAD700F0330E4A602FEF7AF031EF7AB3
:10F45D00F039EF7AF0320E496437EF7AF039EF7AFE
:10F46D00F067EF7AF04B0E146E000E156E010E164E
:10F47D006EDAEC72F04B0E1F6E000E206E510E21E7
:10F48D006EFE0E226E010E236E010E246E6AEC7658
:10F49D00F0540E0B6E000E0C6E10EC74F0530E0B40
:10F4AD006E000E0C6E92EC74F055EF7AF086EC7ADD
:10F4BD00F0000E486E7CEF7AF099EC70F05FEF7A09
:10F4CD00F04850456E466A4650000AD8B471EF7A3E
:10F4DD00F07CEF7AF04550310AD8B45DEF7AF00345
:10F4ED000AD8B463EF7AF07CEF7AF0920E016E00D9
:10F4FD000E026EBDEC70F0F0EF79F000EF00F00051
:10F50D000E2E6E4B0E146E000E156E010E166EDA6B
:10F51D00EC72F04B0E1F6E000E206E270E216EFE4C
:10F52D000E226E010E236E010E246E6AEC76F092A1
:10F53D000E256E000E266ECCEC76F0920E056E004A
:10F54D000E066E2E0E076E000E086EB3EC75F02FC4
:10F55D006E63EF7BF0550E0B6E000E0C6E10EC749F
:10F56D00F02F6E4B0E146E000E156E010E166EDA28
:10F57D00EC72F02F6E4B0E1F6E000E206E3C0E21A6
:10F58D006EFE0E226E010E236E010E246E6AEC7657
:10F59D00F0510E0B6E000E0C6E56EC71F00B0E2D25
:10F5AD006E260E2C6E5E0EE82EFED72C2EFCD72D61
:10F5BD002EFAD7510E0B6E000E0C6E79EC71F055C4
:10F5CD000E0B6E000E0C6ECFEC73F02F6E300E4ADC
:10F5DD006E78EF7BF04A2A540E0B6E000E0C6E10F7
:10F5ED00EC74F0530E0B6E000E0C6E92EC74F04B2F
:10F5FD000E146E000E156E010E166EDAEC72F04BD7
:10F60D000E1F6E000E206EB40E216EFE0E226E01C8
:10F61D000E236E010E246E6AEC76F04B0E1F6E00FB
:10F62D000E206E800E216EFF0E226E020E236E01D5
:10F63D000E246E6AEC76F04B0E1F6E000E206EEBF4
:10F64D000E216EFF0E226E030E236E010E246E6AC6
:10F65D00EC76F04B0E1F6E000E206E4AC021F003AB
:10F66D000E226E020E236ED3EC74F0150E2D6E4B22
:10F67D000E2C6EBE0EE82EFED72C2EFCD72D2EFA9C
:10F68D00D700F000F0530E0B6E000E0C6E51EC74A3
:10F69D00F0540E0B6E000E0C6ECFEC73F02F6E331C
:10F6AD000E4A605CEF7BF05EEF7BF078EF7BF0BD98
:10F6BD00EC77F02F6E78EF7BF02E502C6E2D6A2D9F
:10F6CD0050000AD8B46DEF7BF078EF7BF02C500032
:10F6DD000AD8B4F1EF7AF0010AD8B4B1EF7AF07824
:10F6ED00EF7BF02F50120020EE6AF010EE2EF00995
:10F6FD000EDBCFE3FFE806FCE220EE60F010EE3803
:10F70D00F0090EDBCFE3FFE806FCE2000E426E4B84
:10F71D000E146E000E156E010E166EDAEC72F04BB5
:10F72D000E1F6E000E206E790E216EFE0E226E01E2
:10F73D000E236E010E246E6AEC76F0020E2D6E0411
:10F74D000E2C6EBA0EE82EFED72C2EFCD72D2EFACF
:10F75D00D700F000F02E0E256E000E266ECCEC7646
:10F76D00F02E0E056E000E066E420E076E000E0890
:10F77D006EB3EC75F0436EB9EF7CF04B0E146E006A
:10F78D000E156E010E166EDAEC72F04B0E1F6E003A
:10F79D000E206E8D0E216EFE0E226E010E236E0159
:10F7AD000E246E6AEC76F0060E2D6E130E2C6EAED8
:10F7BD000EE82EFED72C2EFCD72D2EFAD7380E257F
:10F7CD006E000E266ECCEC76F0436E4304D8A4F298
:10F7DD00EF7BF0F4EF7BF043EF7CF00A0EA5EC70BD
:10F7ED00F0380E056E000E066E0A0E076E0CEC72EA
:10F7FD00F0550E0B6E000E0C6E10EC74F04B0E14DB
:10F80D006E000E156E010E166EDAEC72F04B0E1FB9
:10F81D006E000E206EC00E216EFF0E226E010E23A5
:10F82D006E010E246E6AEC76F04B0E1F6E000E20EC
:10F83D006ECD0E216EFF0E226E020E236E010E2472
:10F84D006E6AEC76F00B0E2D6E260E2C6E5E0EE8AB
:10F85D002EFED72C2EFCD72D2EFAD74B0E146E0064
:10F86D000E156E010E166EDAEC72F0550E0B6E0063
:10F87D000E0C6ECFEC73F0436E300E496ECEEF7CF6
:10F88D00F0492A540E0B6E000E0C6E10EC74F053F2
:10F89D000E0B6E000E0C6E92EC74F04B0E146E008F
:10F8AD000E156E010E166EDAEC72F04B0E1F6E0019
:10F8BD000E206EB40E216EFE0E226E010E236E0111
:10F8CD000E246E6AEC76F04B0E1F6E000E206E80CD
:10F8DD000E216EFF0E226E020E236E010E246E6A35
:10F8ED00EC76F04B0E1F6E000E206EEB0E216EFFB0
:10F8FD000E226E030E236E010E246E6AEC76F04B13
:10F90D000E1F6E000E206E49C021F0030E226E02F6
:10F91D000E236ED3EC74F0150E2D6E4B0E2C6EBEA9
:10F92D000EE82EFED72C2EFCD72D2EFAD700F00088
:10F93D00F0530E0B6E000E0C6E51EC74F0540E0B5A
:10F94D006E000E0C6ECFEC73F0436E330E4960B249
:10F95D00EF7CF0B4EF7CF0CEEF7CF0BDEC77F043B4
:10F96D006ECEEF7CF042502C6E2D6A2D50000AD8D1
:10F97D00B4C3EF7CF0CEEF7CF02C50000AD8B44726
:10F98D00EF7CF0010AD8B4C4EF7BF0CEEF7CF043EE
:10F99D00501200000E426E20EE38F0090EDE6AE8BD
:10F9AD0006FDE220EE2EF0090EDE6AE806FDE24BC2
:10F9BD000E146E000E156E010E166EDAEC72F04B13
:10F9CD000E1F6E000E206EA10E216EFE0E226E0118
:10F9DD000E236E010E246E6AEC76F05650A5EC7077
:10F9ED00F0436E000E566E01EF7FF0000E426E0B6F
:10F9FD00EF7DF09C0E0B6E000E0C6E420E0D6E0028
:10FA0D000E0E6ECFEC78F0436E4250D8B411EF7DF0
:10FA1D00F013EF7DF000EF7DF00A0E5618D8A41A02
:10FA2D00EF7DF01CEF7DF07CEF7DF04B0E146E0042
:10FA3D000E156E010E166EDAEC72F0436E540E0B4F
:10FA4D006E000E0C6E10EC74F0436E530E0B6E00C8
:10FA5D000E0C6E92EC74F0436E4B0E1F6E000E206A
:10FA6D006EA00E216EFF0E226E010E236E010E246E
:10FA7D006E6AEC76F04B0E1F6E000E206E260E2178
:10FA8D006EFF0E226E020E236E010E246E6AEC7650
:10FA9D00F04B0E1F6E000E206E6F0E216EFF0E22AC
:10FAAD006E040E236E010E246E6AEC76F0150E2D8B
:10FABD006E4B0E2C6EBE0EE82EFED72C2EFCD72DC7
:10FACD002EFAD700F000F0540E0B6E000E0C6ECF18
:10FADD00EC73F0530E0B6E000E0C6E51EC74F0BD0A
:10FAED00EC77F0000E436E09EF7FF0230E4218D82D
:10FAFD00B483EF7DF085EF7DF0A9EF7DF0380E56E4
:10FB0D0024D96EDA6A000EDA2242C0DFFF4B0E1FD7
:10FB1D006E000E206E2A0E216E020E226E562823C6
:10FB2D006ED3EC74F0436E562A030E2D6E080E2C18
:10FB3D006E770EE82EFED72C2EFCD72D2EFAD70081
:10FB4D00F001EF7FF0230E4218D8A4B0EF7DF0B294
:10FB5D00EF7DF001EF7FF0030E5664B8EF7DF0BA44
:10FB6D00EF7DF0A5EF7EF04B0E146E000E156E01BD
:10FB7D000E166EDAEC72F04B0E1F6E000E206E65D7
:10FB8D000E216EFE0E226E010E236E010E246E6A84
:10FB9D00EC76F0030E2D6E080E2C6E770EE82EFE11
:10FBAD00D72C2EFCD72D2EFAD700F02E0E256E0059
:10FBBD000E266ECCEC76F0380E016E000E026E2E17
:10FBCD000E036E000E046E6AEC72F00150436E432C
:10FBDD0050D8A4F4EF7DF0F6EF7DF054EF7EF04BAE
:10FBED000E146E000E156E010E166EDAEC72F038F4
:10FBFD000E056E000E066E56C007F00CEC72F0434B
:10FC0D006E4304D8A40DEF7EF00FEF7EF0FFEF7E74
:10FC1D00F0550E0B6E000E0C6E10EC74F04B0E1FAB
:10FC2D006E000E206EC00E216EFF0E226E010E2391
:10FC3D006E010E246E6AEC76F04B0E1F6E000E20D8
:10FC4D006ECD0E216EFF0E226E020E236E010E245E
:10FC5D006E6AEC76F0030E026E0168000E036EC044
:10FC6D00EC71F00B0E2D6E260E2C6E5E0EE82EFE38
:10FC7D00D72C2EFCD72D2EFAD74B0E146E000E1549
:10FC8D006E010E166EDAEC72F0550E0B6E000E0C48
:10FC9D006ECFEC73F0436E09EF7FF04B0E146E00D8
:10FCAD000E156E010E166EDAEC72F0436E540E0BDD
:10FCBD006E000E0C6E10EC74F0436E530E0B6E0056
:10FCCD000E0C6E92EC74F0436E4B0E1F6E000E20F8
:10FCDD006E5D0E216EFF0E226E010E236E010E243F
:10FCED006E6AEC76F04B0E1F6E000E206EE30E2149
:10FCFD006EFF0E226E020E236E010E246E6AEC76DE
:10FD0D00F0150E2D6E4B0E2C6EBE0EE82EFED72C62
:10FD1D002EFCD72D2EFAD700F000F0540E0B6E00EE
:10FD2D000E0C6ECFEC73F0530E0B6E000E0C6E516D
:10FD3D00EC74F0BDEC77F0436E09EF7FF04B0E14D1
:10FD4D006E000E156E010E166EDAEC72F0436E4BF0
:10FD5D000E146E000E156E030E166EDAEC72F04375
:10FD6D006E540E0B6E000E0C6E10EC74F0436E5351
:10FD7D000E0B6E000E0C6E92EC74F0436E4B0E1F5C
:10FD8D006E000E206EB00E216EFF0E226E010E2340
:10FD9D006E010E246E6AEC76F04B0E1F6E000E2077
:10FDAD006EF10E216EFF0E226E020E236E010E24D9
:10FDBD006E6AEC76F04B0E1F6E000E206E390E2122
:10FDCD006EFF0E226E030E236E010E246E6AEC760C
:10FDDD00F04B0E1F6E000E206EDA0E216EFF0E22FE
:10FDED006E040E236E010E246E6AEC76F087EF7EA4
:10FDFD00F009EF7FF00A0E566407EF7FF009EF7FF1
:10FE0D00F0FCEF7CF043501200003738392F3435B9
:10FE1D00362A3132332D23303D2B456E74657220D9
:10FE2D00596F75722050617373776F726420005033
:10FE3D00617373776F726420497320436F727265BB
:10FE4D0063742000546865207361666520697320B2
:10FE5D006C6F636B65642000456E7465722055721E
:10FE6D00205061737320416761696E00456E746542
:10FE7D007220596F7572204F6C642050617373003E
:10FE8D00456E74657220596F7572204E65772050DE
:10FE9D006173730053657420596F757220506173CF
:10FEAD0073776F7264200050617373776F72642083
:10FEBD0049732057726F6E67200054727920616705
:10FECD0061696E2061667465723A203100547279F1
:10FEDD0020616761696E2061667465723A20320037
:10FEED0054727920616761696E2061667465723A3A
:10FEFD0020330054727920616761696E20616674E8
:10FF0D0065723A20340054727920616761696E2000
:10FF1D0061667465723A2035004578636565647372
:10FF2D00204D6178204C656E677468004D696E696F
:10FF3D006D756D204C656E6774682069730032298C
:10FF4D004368616E67652054686520506173730066
:10FF5D0050617373776F72647320617265206E6F79
:10FF6D0074004D6178204C656E677468204973206C
:10FF7D0031300057726F6E6720417474656D707407
:10FF8D0073200031294F70656E20546865205361D0
:10FF9D0066650050617373776F7264204C656E6790
:10FFAD0074680050617373776F7264206973207485
:10FFBD006F6F0050617373776F72642053657400B7
:10FFCD005375636365737366756C6C790034206467
:10FFDD006967697473004D617463686564002820F6
:10FFED002F33290053686F727400256C64002569E6
:02FFFD00000002
:00000001FF
